{
  "_format": "hh-sol-artifact-1",
  "contractName": "SecondaryIssuePoolFactory",
  "sourceName": "contracts/SecondaryIssuePoolFactory.sol",
  "abi": [
    {
      "inputs": [
        {
          "internalType": "contract IVault",
          "name": "vault",
          "type": "address"
        },
        {
          "internalType": "contract IProtocolFeePercentagesProvider",
          "name": "protocolFeeProvider",
          "type": "address"
        }
      ],
      "stateMutability": "nonpayable",
      "type": "constructor"
    },
    {
      "anonymous": false,
      "inputs": [],
      "name": "FactoryDisabled",
      "type": "event"
    },
    {
      "anonymous": false,
      "inputs": [
        {
          "indexed": true,
          "internalType": "address",
          "name": "pool",
          "type": "address"
        }
      ],
      "name": "PoolCreated",
      "type": "event"
    },
    {
      "inputs": [
        {
          "internalType": "string",
          "name": "name",
          "type": "string"
        },
        {
          "internalType": "string",
          "name": "symbol",
          "type": "string"
        },
        {
          "internalType": "address",
          "name": "security",
          "type": "address"
        },
        {
          "internalType": "address",
          "name": "currency",
          "type": "address"
        },
        {
          "internalType": "uint256",
          "name": "minOrderSize",
          "type": "uint256"
        },
        {
          "internalType": "uint256",
          "name": "tradeFeePercentage",
          "type": "uint256"
        }
      ],
      "name": "create",
      "outputs": [
        {
          "internalType": "address",
          "name": "",
          "type": "address"
        }
      ],
      "stateMutability": "nonpayable",
      "type": "function"
    },
    {
      "inputs": [],
      "name": "disable",
      "outputs": [],
      "stateMutability": "nonpayable",
      "type": "function"
    },
    {
      "inputs": [
        {
          "internalType": "bytes4",
          "name": "selector",
          "type": "bytes4"
        }
      ],
      "name": "getActionId",
      "outputs": [
        {
          "internalType": "bytes32",
          "name": "",
          "type": "bytes32"
        }
      ],
      "stateMutability": "view",
      "type": "function"
    },
    {
      "inputs": [],
      "name": "getAuthorizer",
      "outputs": [
        {
          "internalType": "contract IAuthorizer",
          "name": "",
          "type": "address"
        }
      ],
      "stateMutability": "view",
      "type": "function"
    },
    {
      "inputs": [],
      "name": "getCreationCode",
      "outputs": [
        {
          "internalType": "bytes",
          "name": "",
          "type": "bytes"
        }
      ],
      "stateMutability": "view",
      "type": "function"
    },
    {
      "inputs": [],
      "name": "getCreationCodeContracts",
      "outputs": [
        {
          "internalType": "address",
          "name": "contractA",
          "type": "address"
        },
        {
          "internalType": "address",
          "name": "contractB",
          "type": "address"
        }
      ],
      "stateMutability": "view",
      "type": "function"
    },
    {
      "inputs": [],
      "name": "getPauseConfiguration",
      "outputs": [
        {
          "internalType": "uint256",
          "name": "pauseWindowDuration",
          "type": "uint256"
        },
        {
          "internalType": "uint256",
          "name": "bufferPeriodDuration",
          "type": "uint256"
        }
      ],
      "stateMutability": "view",
      "type": "function"
    },
    {
      "inputs": [],
      "name": "getProtocolFeePercentagesProvider",
      "outputs": [
        {
          "internalType": "contract IProtocolFeePercentagesProvider",
          "name": "",
          "type": "address"
        }
      ],
      "stateMutability": "view",
      "type": "function"
    },
    {
      "inputs": [],
      "name": "getVault",
      "outputs": [
        {
          "internalType": "contract IVault",
          "name": "",
          "type": "address"
        }
      ],
      "stateMutability": "view",
      "type": "function"
    },
    {
      "inputs": [],
      "name": "isDisabled",
      "outputs": [
        {
          "internalType": "bool",
          "name": "",
          "type": "bool"
        }
      ],
      "stateMutability": "view",
      "type": "function"
    },
    {
      "inputs": [
        {
          "internalType": "address",
          "name": "pool",
          "type": "address"
        }
      ],
      "name": "isPoolFromFactory",
      "outputs": [
        {
          "internalType": "bool",
          "name": "",
          "type": "bool"
        }
      ],
      "stateMutability": "view",
      "type": "function"
    }
  ],
  "bytecode": "0x6101806040523480156200001257600080fd5b5060405162009241380380620092418339810160408190526200003591620001fc565b8181604051806020016200004990620001ee565b601f1982820381018352601f90910116604052805183903090839060006002820460a081905280830360e08190528185529091508362000095816200010f602090811b6200043717901c565b60601b6001600160601b0319166080528285018051838252620000c4826200010f602090811b6200043717901c565b6001600160601b0319606091821b811660c05296909352905261010095909552505092821b831661012052509290921b90911661014052505050426276a70001610160525062000250565b80517f602038038060206000396000f3fefefefefefefefefefefefefefefefefefefe808352600091602081018484f090845291506200015d6001600160a01b03831615156101ac62000163565b50919050565b816200017457620001748162000178565b5050565b6200018a816210905360ea1b6200018d565b50565b62461bcd60e51b600090815260206004526007602452600a808404818106603090810160081b958390069590950190829004918206850160101b01602363ffffff0060e086901c160160181b0190930160c81b60445260e882901c90606490fd5b6184b78062000d8a83390190565b600080604083850312156200020f578182fd5b82516200021c816200023a565b60208401519092506200022f816200023a565b809150509250929050565b6001600160a01b03811681146200018a57600080fd5b60805160601c60a05160c05160601c60e051610100516101205160601c6101405160601c61016051610ac1620002c9600039806101ec52806102155250806102c052508061039b52508061034b5250806104915250806101c3528061050d5250806104b25250806101a252806104e95250610ac16000f3fe608060405234801561001057600080fd5b50600436106100a85760003560e01c80636c57f5a9116100715780636c57f5a914610121578063739238d61461012957806374dcc7a41461013e578063851c1bb3146101515780638d928af814610171578063aaabadc514610179576100a8565b8062c194db146100ad578063174481fa146100cb5780632da47c40146100e15780632f2770db146100f75780636634b75314610101575b600080fd5b6100b5610181565b6040516100c2919061098e565b60405180910390f35b6100d36101a0565b6040516100c2929190610941565b6100e96101e6565b6040516100c2929190610a68565b6100ff610250565b005b61011461010f3660046107c7565b610297565b6040516100c2919061095b565b6101146102b5565b6101316102be565b6040516100c2919061092d565b61013161014c366004610847565b6102e2565b61016461015f366004610803565b610347565b6040516100c29190610966565b610131610399565b6101316103bd565b606061019b60405180602001604052806000815250610489565b905090565b7f00000000000000000000000000000000000000000000000000000000000000007f00000000000000000000000000000000000000000000000000000000000000009091565b600080427f000000000000000000000000000000000000000000000000000000000000000081101561024257807f000000000000000000000000000000000000000000000000000000000000000003925062278d00915061024b565b60009250600091505b509091565b610258610562565b610260610593565b6001805460ff1916811790556040517f432acbfd662dbb5d8b378384a67159b47ca9d0f1b79f97cf64cf8585fa362d5090600090a1565b6001600160a01b031660009081526020819052604090205460ff1690565b60015460ff1690565b7f000000000000000000000000000000000000000000000000000000000000000090565b60008060006102ef6101e6565b915091506103386102fe610399565b8c8c8c8c8c8c8c8c8b8b336040516020016103249c9b9a999897969594939291906109e1565b6040516020818303038152906040526105a8565b9b9a5050505050505050505050565b60007f00000000000000000000000000000000000000000000000000000000000000008260405160200161037c929190610915565b604051602081830303815290604052805190602001209050919050565b7f000000000000000000000000000000000000000000000000000000000000000090565b60006103c7610399565b6001600160a01b031663aaabadc56040518163ffffffff1660e01b815260040160206040518083038186803b1580156103ff57600080fd5b505afa158015610413573d6000803e3d6000fd5b505050506040513d601f19601f8201168201806040525081019061019b919061082b565b80517f602038038060206000396000f3fefefefefefefefefefefefefefefefefefefe808352600091602081018484f090845291506104836001600160a01b03831615156101ac610611565b50919050565b8051604080517f00000000000000000000000000000000000000000000000000000000000000007f0000000000000000000000000000000000000000000000000000000000000000818101858101848101602090810190965280855293957f00000000000000000000000000000000000000000000000000000000000000009592947f000000000000000000000000000000000000000000000000000000000000000094938801866000828a3c846000888301883c5060208981019089850101610554818386610623565b505050505050505050919050565b60006105796000356001600160e01b031916610347565b90506105906105888233610661565b610191610611565b50565b6105a661059e6102b5565b1560d3610611565b565b60006105b2610593565b60006105bd836106f1565b6001600160a01b038116600081815260208190526040808220805460ff191660011790555192935090917f83a48fbcfc991335314e74d0496aab6a1987e992ddc85dddbcc4d6dd6ef2e9fc9190a292915050565b8161061f5761061f81610725565b5050565b5b60208110610643578151835260209283019290910190601f1901610624565b905182516020929092036101000a6000190180199091169116179052565b600061066b6103bd565b6001600160a01b0316639be2a8848484306040518463ffffffff1660e01b815260040161069a9392919061096f565b60206040518083038186803b1580156106b257600080fd5b505afa1580156106c6573d6000803e3d6000fd5b505050506040513d601f19601f820116820180604052508101906106ea91906107e3565b9392505050565b600060606106fe83610489565b905060008151602083016000f090506001600160a01b0381166106ea573d6000803e3d6000fd5b62461bcd60e51b600090815260206004526007602452600a808304818106603090810160081b83860601918390049283060160101b016642414c230000300160c81b604452610590916210905360ea1b906242414c90606490fd5b60008083601f840112610791578182fd5b50813567ffffffffffffffff8111156107a8578182fd5b6020830191508360208285010111156107c057600080fd5b9250929050565b6000602082840312156107d8578081fd5b81356106ea81610a76565b6000602082840312156107f4578081fd5b815180151581146106ea578182fd5b600060208284031215610814578081fd5b81356001600160e01b0319811681146106ea578182fd5b60006020828403121561083c578081fd5b81516106ea81610a76565b60008060008060008060008060c0898b031215610862578384fd5b883567ffffffffffffffff80821115610879578586fd5b6108858c838d01610780565b909a50985060208b013591508082111561089d578586fd5b506108aa8b828c01610780565b90975095505060408901356108be81610a76565b935060608901356108ce81610a76565b979a969950949793969295929450505060808201359160a0013590565b60008284528282602086013780602084860101526020601f19601f85011685010190509392505050565b9182526001600160e01b031916602082015260240190565b6001600160a01b0391909116815260200190565b6001600160a01b0392831681529116602082015260400190565b901515815260200190565b90815260200190565b9283526001600160a01b03918216602084015216604082015260600190565b6000602080835283518082850152825b818110156109ba5785810183015185820160400152820161099e565b818111156109cb5783604083870101525b50601f01601f1916929092016040019392505050565b6001600160a01b038d16815261014060208201819052600090610a079083018d8f6108eb565b8281036040840152610a1a818c8e6108eb565b6001600160a01b039a8b166060850152988a166080840152505060a081019590955260c085019390935260e08401919091526101008301529092166101209092019190915295945050505050565b918252602082015260400190565b6001600160a01b038116811461059057600080fdfea2646970667358221220b7e3f5d2a24597aacfa82ac06822ab60ba42e77fae878a3c64e817bc9879f2c364736f6c634300070100336102e06040523480156200001257600080fd5b50604051620084b7380380620084b7833981016040819052620000359162000b88565b8960008a8a620000478b8b30620004d1565b6040805160038082526080820190925290602082016060803683370190505089898989828289898d85336001600160a01b031660001b8480604051806040016040528060018152602001603160f81b81525087878160039080519060200190620000b3929190620009f2565b508051620000c9906004906020840190620009f2565b50506005805460ff19166012179055508151602092830120608052805191012060a052507f8b73c3c69bb8fe3d512ecc4cf759cc79239f7b179b0ffacaa9a75d522b39400f60c05260e0526001600160601b0319606091821b81166101005291901b1661012052506200014790506276a700831115610194620005a0565b6200015b62278d00821115610195620005a0565b42909101610140819052016101605285516200017d906002111560c8620005a0565b620001976200018b620005b5565b8751111560c9620005a0565b620001ad86620005ba60201b620020651760201c565b620001b884620005c6565b6040516309b2760f60e01b81526000906001600160a01b038c16906309b2760f90620001e9908d9060040162000d51565b602060405180830381600087803b1580156200020457600080fd5b505af115801562000219573d6000803e3d6000fd5b505050506040513d601f19601f820116820180604052508101906200023f919062000b50565b604051633354e3e960e11b81529091506001600160a01b038c16906366a9c7d290620002749084908b908b9060040162000cb5565b600060405180830381600087803b1580156200028f57600080fd5b505af1158015620002a4573d6000803e3d6000fd5b505050508061018081815250508a6001600160a01b031663d2946c2b6040518163ffffffff1660e01b815260040160206040518083038186803b158015620002eb57600080fd5b505afa15801562000300573d6000803e3d6000fd5b505050506040513d601f19601f8201168201806040525081019062000326919062000b69565b6001600160a01b03166101a0816001600160a01b031660601b815250505050505050505050505050866001600160a01b03166101c0816001600160a01b031660601b81525050856001600160a01b03166101e0816001600160a01b031660601b8152505089600a60006101000a8154816001600160a01b0302191690836001600160a01b031602179055506000806000620003c98a8a306200065a60201b60201c565b6102608190526102808390526102a082905291945092509050620003ed8a62000750565b61020052620003fc8962000750565b610220526102408890526001600160601b0319606085901b166102c05260405184908b908b9030906200042f9062000a77565b6200043e949392919062000c8a565b604051809103906000f0801580156200045b573d6000803e3d6000fd5b50600980546001600160a01b0319166001600160a01b0392831617908190556040518c8316927f32e7b5e5c88bb4ec1dca71e1e00fc2444e236858d09faa9ddbb9d8c710549ecb92620004b6928d928f9216908a9062000d6f565b60405180910390a25050505050505050505050505062000db8565b606060008080620004e48787876200065a565b60408051600380825260808201909252939650919450925060208201606080368337019050509350868484815181106200051a57fe5b60200260200101906001600160a01b031690816001600160a01b031681525050858483815181106200054857fe5b60200260200101906001600160a01b031690816001600160a01b031681525050848482815181106200057657fe5b60200260200101906001600160a01b031690816001600160a01b0316815250505050509392505050565b81620005b157620005b18162000824565b5050565b600390565b80620005b18162000839565b620005df620005d4620008c5565b82101560cb620005a0565b620005f8620005ed620008ce565b82111560ca620005a0565b6200061a8160c0603f600854620008da60201b6200206f17909392919060201c565b6008556040517fa9ba3ffe0b6c366b81232caab38605a0699ad5398d6cce76f91ee809e322dafc906200064f90839062000d66565b60405180910390a150565b6000806000846001600160a01b0316866001600160a01b03161015620006e357836001600160a01b0316856001600160a01b03161015620006a657506000915060019050600262000747565b836001600160a01b0316866001600160a01b03161015620006d257506000915060029050600162000747565b506001915060029050600062000747565b846001600160a01b0316846001600160a01b031610156200070f57506002915060019050600062000747565b856001600160a01b0316846001600160a01b031610156200073b57506002915060009050600162000747565b50600191506000905060025b93509350939050565b60006001600160a01b038216301415620007745750670de0b6b3a76400006200081f565b6000826001600160a01b031663313ce5676040518163ffffffff1660e01b815260040160206040518083038186803b158015620007b057600080fd5b505afa158015620007c5573d6000803e3d6000fd5b505050506040513d601f19601f82011682018060405250810190620007eb919062000c67565b60ff16905060006200080a601283620008ff60201b620020921760201c565b905080600a0a670de0b6b3a764000002925050505b919050565b62000836816210905360ea1b6200091c565b50565b6002815110156200084a5762000836565b6000816000815181106200085a57fe5b602002602001015190506000600190505b8251811015620008c05760008382815181106200088457fe5b60200260200101519050620008b5816001600160a01b0316846001600160a01b0316106065620005a060201b60201c565b91506001016200086b565b505050565b64e8d4a5100090565b67016345785d8a000090565b6000620008e98484846200097d565b506001901b60001901811b1992909216911b1790565b600062000911838311156001620005a0565b508082035b92915050565b62461bcd60e51b600090815260206004526007602452600a808404818106603090810160081b958390069590950190829004918206850160101b01602363ffffff0060e086901c160160181b0190930160c81b60445260e882901c90606490fd5b6200098e61010083106064620005a0565b620009c760018210158015620009bf5750620009bb60ff8461010003620009d860201b620020a81760201c565b8211155b6064620005a0565b620008c083821c156101b4620005a0565b6000818310620009e95781620009eb565b825b9392505050565b828054600181600116156101000203166002900490600052602060002090601f016020900481019282601f1062000a3557805160ff191683800117855562000a65565b8280016001018555821562000a65579182015b8281111562000a6557825182559160200191906001019062000a48565b5062000a7392915062000a85565b5090565b613261806200525683390190565b5b8082111562000a73576000815560010162000a86565b8051620009168162000da2565b600082601f83011262000aba578081fd5b81516001600160401b038082111562000ad1578283fd5b6040516020601f8401601f191682018101838111838210171562000af3578586fd5b8060405250819450838252868185880101111562000b1057600080fd5b600092505b8383101562000b34578583018101518284018201529182019162000b15565b8383111562000b465760008185840101525b5050505092915050565b60006020828403121562000b62578081fd5b5051919050565b60006020828403121562000b7b578081fd5b8151620009eb8162000da2565b6000806000806000806000806000806101408b8d03121562000ba8578586fd5b62000bb48c8c62000a9c565b60208c0151909a506001600160401b038082111562000bd1578788fd5b62000bdf8e838f0162000aa9565b9a5060408d015191508082111562000bf5578788fd5b5062000c048d828e0162000aa9565b98505062000c168c60608d0162000a9c565b965062000c278c60808d0162000a9c565b955060a08b0151945060c08b0151935060e08b015192506101008b0151915062000c568c6101208d0162000a9c565b90509295989b9194979a5092959850565b60006020828403121562000c79578081fd5b815160ff81168114620009eb578182fd5b6001600160a01b03948516815292841660208401529083166040830152909116606082015260800190565b60006060820185835260206060818501528186518084526080860191508288019350845b8181101562000d015762000cee855162000d96565b8352938301939183019160010162000cd9565b505084810360408601528551808252908201925081860190845b8181101562000d435762000d30835162000d96565b8552938301939183019160010162000d1b565b509298975050505050505050565b602081016003831062000d6057fe5b91905290565b90815260200190565b9384526001600160a01b039283166020850152908216604084015216606082015260800190565b6001600160a01b031690565b6001600160a01b03811681146200083657600080fd5b60805160a05160c05160e0516101005160601c6101205160601c6101405161016051610180516101a05160601c6101c05160601c6101e05160601c61020051610220516102405161026051610280516102a0516102c05160601c61432a62000f2c60003980612b945250806107b252806121a85280612c005280612c5a52508061086452806121425250806108e852806114e652806116a752806116e4528061172252806121fd5250806115af5280611a8e52508061103e52806121d05280612c3352508061100a528061216a525080610582528061061852806107565280610b845280610c155280610fbf528061116f52806116325280611b2c5250806105c1528061065852806108085280610a155280610afb5280610c795280610ce7528061113052806115f352806119c8525080611e3f525080611a1b5250806123f95250806123d5525080611d27525080611d03525080611c8d525080612ceb525080612d2d525080612d0c525061432a6000f3fe608060405234801561001057600080fd5b50600436106102535760003560e01c806370a0823111610146578063a457c2d7116100c3578063d2946c2b11610087578063d2946c2b14610499578063d505accf146104a1578063d5c096c4146104b4578063dd62ed3e146104c7578063ed24911d146104da578063fd19cac8146104e257610253565b8063a457c2d71461045b578063a9059cbb1461046e578063aaabadc514610481578063b35056b814610489578063b7b814fc1461049157610253565b806387ec68171161010a57806387ec68171461041d578063893d20e8146104305780638d928af81461043857806390193b7c1461044057806395d89b411461045357610253565b806370a08231146103bb57806374f3b009146103ce5780637ecebe00146103ef5780638456cb5914610402578063851c1bb31461040a57610253565b806338e9922e116101d457806350dd6ed91161019857806350dd6ed91461036f57806354a844ba1461038257806355c676281461038a5780636028bfd4146103925780636945c1fd146103b357610253565b806338e9922e1461032f57806338fff2d014610344578063395093511461034c5780633f4ba83a1461035f5780634d6d0fd01461036757610253565b80631dd746ea1161021b5780631dd746ea146102d557806323b872dd146102ea5780632541897f146102fd578063313ce567146103125780633644e5151461032757610253565b806301ec954a1461025857806306fdde0314610281578063095ea7b31461029657806318160ddd146102b65780631c0de051146102be575b600080fd5b61026b610266366004613981565b6104ea565b6040516102789190613e59565b60405180910390f35b610289611867565b6040516102789190613f9d565b6102a96102a43660046136d3565b6118fd565b6040516102789190613e36565b61026b611914565b6102c661191a565b60405161027893929190613e41565b6102dd611943565b6040516102789190613df5565b6102a96102f8366004613623565b611952565b6103056119c6565b6040516102789190613d87565b61031a6119ea565b604051610278919061424e565b61026b6119f3565b61034261033d366004613b80565b6119fd565b005b61026b611a19565b6102a961035a3660046136d3565b611a3d565b610342611a78565b61026b611a8c565b61034261037d366004613840565b611ab0565b610342611ace565b61026b611ae0565b6103a56103a0366004613736565b611af3565b604051610278929190614235565b610305611b2a565b61026b6103c93660046135cf565b611b4e565b6103e16103dc366004613736565b611b69565b604051610278929190613e08565b61026b6103fd3660046135cf565b611c6c565b610342611c77565b61026b6104183660046137fc565b611c89565b6103a561042b366004613736565b611cdb565b610305611d01565b610305611d25565b61026b61044e3660046135cf565b611d49565b610289611d64565b6102a96104693660046136d3565b611dc5565b6102a961047c3660046136d3565b611e03565b610305611e10565b6102a9611e1a565b610342611e2b565b610305611e3d565b6103426104af366004613663565b611e61565b6103e16104c2366004613736565b611eec565b61026b6104d53660046135eb565b61200f565b61026b61204c565b610305612056565b600084608001516105176104fc611d25565b6001600160a01b0316336001600160a01b03161460cd6120c0565b61052c610522611a19565b82146101f46120c0565b6105346120ce565b60008651600181111561054357fe5b148061055b575060018651600181111561055957fe5b145b6105805760405162461bcd60e51b8152600401610577906140c8565b60405180910390fd5b7f00000000000000000000000000000000000000000000000000000000000000006001600160a01b031686604001516001600160a01b031614806105f957507f00000000000000000000000000000000000000000000000000000000000000006001600160a01b031686604001516001600160a01b0316145b80610610575060408601516001600160a01b031630145b8061065057507f00000000000000000000000000000000000000000000000000000000000000006001600160a01b031686602001516001600160a01b0316145b8061069057507f00000000000000000000000000000000000000000000000000000000000000006001600160a01b031686602001516001600160a01b0316145b806106a7575060208601516001600160a01b031630145b6106c35760405162461bcd60e51b815260040161057790613fb0565b60606106cd6120e1565b90506106d98682612254565b6106e1613496565b6000808080808c5160018111156106f457fe5b14156107255761071b8c60600151878c8151811061070e57fe5b60200260200101516122c3565b60608d0152610754565b60018c51600181111561073457fe5b14156107545761074e8c60600151878b8151811061070e57fe5b60608d01525b7f00000000000000000000000000000000000000000000000000000000000000006001600160a01b03168c602001516001600160a01b03161480156107a5575060008c5160018111156107a357fe5b145b15610806578b606001518b7f0000000000000000000000000000000000000000000000000000000000000000815181106107db57fe5b602002602001015110156108015760405162461bcd60e51b81526004016105779061404e565b610937565b7f00000000000000000000000000000000000000000000000000000000000000006001600160a01b03168c602001516001600160a01b0316148015610857575060008c51600181111561085557fe5b145b156108b3578b606001518b7f00000000000000000000000000000000000000000000000000000000000000008151811061088d57fe5b602002602001015110156108015760405162461bcd60e51b8152600401610577906140ee565b60208c01516001600160a01b0316301480156108db575060008c5160018111156108d957fe5b145b15610937578b606001518b7f00000000000000000000000000000000000000000000000000000000000000008151811061091157fe5b602002602001015110156109375760405162461bcd60e51b815260040161057790614017565b6101008c01515115611596578b610100015180602001905181019061095c91906137d9565b909450925064131a5b5a5d60da1b9150836110fa576109796134ad565b60095460c08e015160405163ca142f7560e01b81526001600160a01b039092169163ca142f75916109ae918890600401613ddc565b60c06040518083038186803b1580156109c657600080fd5b505afa1580156109da573d6000803e3d6000fd5b505050506040513d601f19601f820116820180604052508101906109fe9190613b1a565b60095460c08f015182519293506001600160a01b037f000000000000000000000000000000000000000000000000000000000000000081169392811692635778472a92908216911614610a55578360400151610a5b565b83602001515b6040518263ffffffff1660e01b8152600401610a779190613e59565b60a06040518083038186803b158015610a8f57600080fd5b505afa158015610aa3573d6000803e3d6000fd5b505050506040513d601f19601f82011682018060405250810190610ac79190613aa0565b602001516001600160a01b031614610aea576763757272656e637960c01b610af7565b67736563757269747960c01b5b92507f00000000000000000000000000000000000000000000000000000000000000006001600160a01b03168d604001516001600160a01b0316148015610b4a575060008d516001811115610b4857fe5b145b15610b8257806080015191508c606001518160a0015114610b7d5760405162461bcd60e51b815260040161057790614175565b610c11565b7f00000000000000000000000000000000000000000000000000000000000000006001600160a01b03168d604001516001600160a01b0316148015610bd3575060008d516001811115610bd157fe5b145b15610c06578060a0015191508c60600151816080015114610b7d5760405162461bcd60e51b815260040161057790614125565b610c116101636122cf565b60007f00000000000000000000000000000000000000000000000000000000000000006001600160a01b03168e604001516001600160a01b0316148015610c64575060208e01516001600160a01b031630145b15610c7757506314d95b1b60e21b610ce5565b7f00000000000000000000000000000000000000000000000000000000000000006001600160a01b03168e604001516001600160a01b0316148015610cc8575060208e01516001600160a01b031630145b15610cda57506242757960e81b610ce5565b610ce56101636122cf565b7f00000000000000000000000000000000000000000000000000000000000000006001600160a01b03167fd6a806535ec4f172139ede2e9d6bbbe20957ca8a454fd40c9747fe139efe42478f60c001516001600160a01b031684600001516001600160a01b031614610d5b578360400151610d61565b83602001515b67736563757269747960c01b8714610dfc576009546040808701519051632bbc239560e11b81526001600160a01b0390921691635778472a91610da691600401613e59565b60a06040518083038186803b158015610dbe57600080fd5b505afa158015610dd2573d6000803e3d6000fd5b505050506040513d601f19601f82011682018060405250810190610df69190613aa0565b51610e81565b6009546020860151604051632bbc239560e11b81526001600160a01b0390921691635778472a91610e2f91600401613e59565b60a06040518083038186803b158015610e4757600080fd5b505afa158015610e5b573d6000803e3d6000fd5b505050506040513d601f19601f82011682018060405250810190610e7f9190613aa0565b515b6763757272656e637960c01b8814610f1c576009546040808801519051632bbc239560e11b81526001600160a01b0390921691635778472a91610ec691600401613e59565b60a06040518083038186803b158015610ede57600080fd5b505afa158015610ef2573d6000803e3d6000fd5b505050506040513d601f19601f82011682018060405250810190610f169190613aa0565b51610fa1565b6009546020870151604051632bbc239560e11b81526001600160a01b0390921691635778472a91610f4f91600401613e59565b60a06040518083038186803b158015610f6757600080fd5b505afa158015610f7b573d6000803e3d6000fd5b505050506040513d601f19601f82011682018060405250810190610f9f9190613aa0565b515b85610fbd88608001518960a001516122df90919063ffffffff16565b7f00000000000000000000000000000000000000000000000000000000000000008a8a60600151604051610ff8989796959493929190613e98565b60405180910390a261102e82608001517f0000000000000000000000000000000000000000000000000000000000000000612330565b608083015260a0820151611062907f0000000000000000000000000000000000000000000000000000000000000000612330565b60a083015260095460c08f01516040516335ca73db60e21b81526001600160a01b039092169163d729cf6c9161109c918990600401613ddc565b600060405180830381600087803b1580156110b657600080fd5b505af11580156110ca573d6000803e3d6000fd5b505050506110eb83898d815181106110de57fe5b6020026020010151612330565b9950505050505050505061185e565b818414801561110857508215155b15611129576040805180820190915280600181526020018490529450611591565b826112f7577f00000000000000000000000000000000000000000000000000000000000000006001600160a01b03168c604001516001600160a01b031614806111a757507f00000000000000000000000000000000000000000000000000000000000000006001600160a01b03168c604001516001600160a01b0316145b80156111bf575060208c01516001600160a01b031630145b80156111d7575060008c5160018111156111d557fe5b145b156112e75760095460c08d0151604051636b0d76bd60e11b81526001600160a01b039092169163d61aed7a9161121291889190600401613e62565b602060405180830381600087803b15801561122c57600080fd5b505af1158015611240573d6000803e3d6000fd5b505050506040513d601f19601f82011682018060405250810190611264919061371e565b90508b6060015181146112895760405162461bcd60e51b815260040161057790614085565b6000805160206142d58339815191528c60c001518d602001518e604001518f6060015187428a6040516112c29796959493929190613d9b565b60405180910390a16112da81878b815181106110de57fe5b975050505050505061185e565b6112f26101636122cf565b611591565b82156115865760208c01516001600160a01b031630148015611325575060008c51600181111561132357fe5b145b1561140857600960009054906101000a90046001600160a01b03166001600160a01b03166346764e5e85858f6040518463ffffffff1660e01b815260040161136f93929190613f60565b602060405180830381600087803b15801561138957600080fd5b505af115801561139d573d6000803e3d6000fd5b505050506040513d601f19601f820116820180604052508101906113c1919061371e565b90506113d1818d60600151612092565b90506000805160206142d58339815191528c60c001518d604001518e602001518487428a6040516112c29796959493929190613d9b565b60408c01516001600160a01b031630148015611430575060008c51600181111561142e57fe5b145b156112e757600960009054906101000a90046001600160a01b03166001600160a01b03166346764e5e85858f6040518463ffffffff1660e01b815260040161147a93929190613f60565b602060405180830381600087803b15801561149457600080fd5b505af11580156114a8573d6000803e3d6000fd5b505050506040513d601f19601f820116820180604052508101906114cc919061371e565b90506114dc8c606001518261233c565b90508b606001518b7f00000000000000000000000000000000000000000000000000000000000000008151811061150f57fe5b602002602001015110156115355760405162461bcd60e51b8152600401610577906141c5565b6000805160206142d58339815191528c60c001518d602001518e604001518487428a60405161156a9796959493929190613d9b565b60405180910390a16112da8c60600151878b815181106110de57fe5b6115916101636122cf565b6115ad565b604080518082019091526000808252602082015294505b7f00000000000000000000000000000000000000000000000000000000000000008c6060015110156115f15760405162461bcd60e51b815260040161057790613fe0565b7f00000000000000000000000000000000000000000000000000000000000000006001600160a01b03168c602001516001600160a01b0316148061166a57507f00000000000000000000000000000000000000000000000000000000000000006001600160a01b03168c602001516001600160a01b0316145b8015611682575060408c01516001600160a01b031630145b801561169a575060008c51600181111561169857fe5b145b156117f1578b606001518b7f0000000000000000000000000000000000000000000000000000000000000000815181106116d057fe5b602002602001015111156117e15761171f8b7f00000000000000000000000000000000000000000000000000000000000000008151811061170d57fe5b60200260200101518d60600151612092565b8b7f00000000000000000000000000000000000000000000000000000000000000008151811061174b57fe5b6020908102919091010152600954604051635487e8cf60e01b81526001600160a01b0390911690635487e8cf90611788908f9089906004016141fc565b602060405180830381600087803b1580156117a257600080fd5b505af11580156117b6573d6000803e3d6000fd5b505050506040513d601f19601f820116820180604052508101906117da919061371e565b91506117ec565b6117ec6102016122cf565b6117fc565b6117fc6101636122cf565b6000805160206142d58339815191528c60c001518d602001518e604001518f60600151896020015142886040516118399796959493929190613d9b565b60405180910390a16118558c60600151878b815181106110de57fe5b97505050505050505b50949350505050565b60038054604080516020601f60026000196101006001881615020190951694909404938401819004810282018101909252828152606093909290918301828280156118f35780601f106118c8576101008083540402835291602001916118f3565b820191906000526020600020905b8154815290600101906020018083116118d657829003601f168201915b5050505050905090565b600061190a33848461234e565b5060015b92915050565b60025490565b60008060006119276123b6565b1592506119326123d3565b915061193c6123f7565b9050909192565b606061194d6120e1565b905090565b60008061195f853361200f565b9050611983336001600160a01b038716148061197b5750838210155b61019e6120c0565b61198e85858561241b565b336001600160a01b038616148015906119a957506000198114155b156119bb576119bb853385840361234e565b506001949350505050565b7f000000000000000000000000000000000000000000000000000000000000000090565b60055460ff1690565b600061194d61204c565b611a056124fb565b611a0d6120ce565b611a1681612529565b50565b7f000000000000000000000000000000000000000000000000000000000000000090565b3360008181526001602090815260408083206001600160a01b0387168452909152812054909161190a918590611a73908661233c565b61234e565b611a806124fb565b611a8a60006125a2565b565b7f000000000000000000000000000000000000000000000000000000000000000090565b611ab86124fb565b611ac06120ce565b611aca8282612615565b5050565b611ad66124fb565b611a8a600161270a565b60085460009061194d9060c0603f612761565b60006060611b098651611b04612770565b612775565b611b1e898989898989896127826127d461283d565b97509795505050505050565b7f000000000000000000000000000000000000000000000000000000000000000090565b6001600160a01b031660009081526020819052604090205490565b60608088611b786104fc611d25565b611b83610522611a19565b60606000611b9086612967565b15611bb857611b9d612996565b611baf89611ba9611914565b886129a9565b92509050611c0a565b611bc06129d5565b6060611bca6120e1565b9050611bd68a82612254565b611bfa8d8d8d8d8d611be6611e1a565b611bf0578d611bf3565b60005b878e612782565b93509150611c0883826127d4565b505b611c148b826129dd565b81895167ffffffffffffffff81118015611c2d57600080fd5b50604051908082528060200260200182016040528015611c57578160200160208202803683370190505b509450945050505b5097509795505050505050565b600061190e82611d49565b611c7f6124fb565b611a8a60016125a2565b60007f000000000000000000000000000000000000000000000000000000000000000082604051602001611cbe929190613d44565b604051602081830303815290604052805190602001209050919050565b60006060611cec8651611b04612770565b611b1e898989898989896129e7612a0361283d565b7f000000000000000000000000000000000000000000000000000000000000000090565b7f000000000000000000000000000000000000000000000000000000000000000090565b6001600160a01b031660009081526006602052604090205490565b60048054604080516020601f60026000196101006001881615020190951694909404938401819004810282018101909252828152606093909290918301828280156118f35780601f106118c8576101008083540402835291602001916118f3565b600080611dd2338561200f565b9050808310611dec57611de73385600061234e565b611df9565b611df9338585840361234e565b5060019392505050565b600061190a33848461241b565b600061194d612a6c565b60085460009061194d9060ff612ae6565b611e336124fb565b611a8a600061270a565b7f000000000000000000000000000000000000000000000000000000000000000090565b60007f6e71edae12b1b97f4d1f60370fef10105fa2faae0126114a169c64845d6126c9888888611e908c611d49565b89604051602001611ea696959493929190613edf565b604051602081830303815290604052805190602001209050611ed78882611ece878787612af0565b886101f8612b2f565b611ee288888861234e565b5050505050505050565b60608088611efb6104fc611d25565b611f06610522611a19565b611f0e6129d5565b6060611f186120e1565b9050611f22611914565b611fcf5760006060611f378d8d8d868b612b86565b91509150611f50611f46612cab565b83101560cc6120c0565b611f626000611f5d612cab565b612cb2565b611f758b611f6e612cab565b8403612cb2565b611f7f8184612a03565b808a5167ffffffffffffffff81118015611f9857600080fd5b50604051908082528060200260200182016040528015611fc2578160200160208202803683370190505b5095509550505050611c5f565b611fd98882612254565b600060606120018d8d8d8d8d611fed611e1a565b611ff7578d611ffa565b60005b898e6129e7565b91509150611f758b83612cb2565b6000612019611d25565b6001600160a01b0316826001600160a01b0316141561203b575060001961190e565b6120458383612cbc565b905061190e565b600061194d612ce7565b6009546001600160a01b031681565b80611aca81612d84565b600061207c848484612e02565b506001901b60001901811b1992909216911b1790565b60006120a28383111560016120c0565b50900390565b60008183106120b757816120b9565b825b9392505050565b81611aca57611aca816122cf565b611a8a6120d96123b6565b6101926120c0565b606060006120ed612770565b905060608167ffffffffffffffff8111801561210857600080fd5b50604051908082528060200260200182016040528015612132578160200160208202803683370190505b50905060005b8281101561224d577f00000000000000000000000000000000000000000000000000000000000000008114156121a6577f000000000000000000000000000000000000000000000000000000000000000082828151811061219557fe5b602002602001018181525050612245565b7f00000000000000000000000000000000000000000000000000000000000000008114156121fb577f000000000000000000000000000000000000000000000000000000000000000082828151811061219557fe5b7f000000000000000000000000000000000000000000000000000000000000000081141561224557670de0b6b3a764000082828151811061223857fe5b6020026020010181815250505b600101612138565b5091505090565b81518151612263908290612775565b60005b818110156122bd5761229e84828151811061227d57fe5b602002602001015184838151811061229157fe5b6020026020010151612e49565b8482815181106122aa57fe5b6020908102919091010152600101612266565b50505050565b60006120b98383612e49565b611a16816210905360ea1b612e7f565b60006122ee82151560046120c0565b826122fb5750600061190e565b670de0b6b3a76400008381029061231e9085838161231557fe5b041460056120c0565b82818161232757fe5b0491505061190e565b60006120b983836122df565b60008282016120b984821015836120c0565b6001600160a01b0380841660008181526001602090815260408083209487168084529490915290819020849055517f8c5be1e5ebec7d5bd14f71427d1e84f3dd0314c0f7b2291e5b200ac8c7c3b925906123a9908590613e59565b60405180910390a3505050565b60006123c06123f7565b42118061194d57505060075460ff161590565b7f000000000000000000000000000000000000000000000000000000000000000090565b7f000000000000000000000000000000000000000000000000000000000000000090565b6124326001600160a01b03841615156101986120c0565b6124496001600160a01b03831615156101996120c0565b612454838383612dfd565b6001600160a01b03831660009081526020819052604090205461247a90826101a0612ee0565b6001600160a01b0380851660009081526020819052604080822093909355908416815220546124a9908261233c565b6001600160a01b0380841660008181526020819052604090819020939093559151908516907fddf252ad1be2c89b69c2b068fc378daa952ba7f163c4a11628f55a4df523b3ef906123a9908590613e59565b60006125126000356001600160e01b031916611c89565b9050611a166125218233612ef6565b6101916120c0565b61253e612534612fdf565b82101560cb6120c0565b612553612549612fe8565b82111560ca6120c0565b600854612564908260c0603f61206f565b6008556040517fa9ba3ffe0b6c366b81232caab38605a0699ad5398d6cce76f91ee809e322dafc90612597908390613e59565b60405180910390a150565b80156125c2576125bd6125b36123d3565b42106101936120c0565b6125d7565b6125d76125cd6123f7565b42106101a96120c0565b6007805460ff19168215151790556040517f9e3a5e37224532dea67b89face185703738a228a6e8a23dee546960180d3be6490612597908390613e36565b600061261f611a19565b9050600061262b611d25565b6001600160a01b031663b05f8e4883866040518363ffffffff1660e01b8152600401612658929190613e62565b60806040518083038186803b15801561267057600080fd5b505afa158015612684573d6000803e3d6000fd5b505050506040513d601f19601f820116820180604052508101906126a89190613b98565b604051630639cdb560e21b81529094506001600160a01b03851693506318e736d492506126dc915085908790600401613f3f565b600060405180830381600087803b1580156126f657600080fd5b505af1158015611ee2573d6000803e3d6000fd5b600854612719908260ff612ff4565b6008556040517feff3d4d215b42bf0960be9c6d5e05c22cba4df6627a3a523e2acee733b5854c89061274c908390613e36565b60405180910390a180611a1657611a16611a8a565b6001901b6000190191901c1690565b600390565b611aca81831460676120c0565b6000606060006127918461301b565b905060018160018111156127a157fe5b146127b6576127b16101636122cf565b6127c6565b6127c08885613031565b90935091505b509850989650505050505050565b815181516127e3908290612775565b60005b818110156122bd5761281e8482815181106127fd57fe5b602002602001015184838151811061281157fe5b60200260200101516122df565b84828151811061282a57fe5b60209081029190910101526001016127e6565b3330146128fb576000306001600160a01b0316600036604051612861929190613d5c565b6000604051808303816000865af19150503d806000811461289e576040519150601f19603f3d011682016040523d82523d6000602084013e6128a3565b606091505b5050905080600081146128b257fe5b60046000803e6000516001600160e01b0319166343adbafb60e01b81146128dd573d6000803e3d6000fd5b506020600460003e604060205260243d03602460403e601c3d016000f35b6129036129d5565b606061290d6120e1565b90506129198782612254565b600060606129318c8c8c8c8c8c898d8d63ffffffff16565b9150915061294381848663ffffffff16565b8051601f1982018390526343adbafb603f1983015260200260231982016044820181fd5b600080825111801561190e575060ff80168280602001905181019061298c9190613bd8565b60ff161492915050565b611a8a6129a1611e1a565b6101b66120c0565b6000606060006129b8846130d4565b905060606129c78787846130ea565b919791965090945050505050565b611a8a6120ce565b611aca8282613199565b600060606129f66101636122cf565b9850989650505050505050565b81518151612a12908290612775565b60005b818110156122bd57612a4d848281518110612a2c57fe5b6020026020010151848381518110612a4057fe5b6020026020010151613265565b848281518110612a5957fe5b6020908102919091010152600101612a15565b6000612a76611d25565b6001600160a01b031663aaabadc56040518163ffffffff1660e01b815260040160206040518083038186803b158015612aae57600080fd5b505afa158015612ac2573d6000803e3d6000fd5b505050506040513d601f19601f8201168201806040525081019061194d9190613824565b1c60019081161490565b60408051604180825260808201909252606091829190602082018180368337019050509050836020820152826040820152846060820153949350505050565b6000612b3a856132b3565b9050612b50612b4a8783876132cf565b836120c0565b612b5f428410156101b86120c0565b5050506001600160a01b039092166000908152600660205260409020805460010190555050565b60006060612b926120ce565b7f0000000000000000000000000000000000000000000000000000000000000000612bcd6001600160a01b03888116908316146101566120c0565b612bed816001600160a01b0316876001600160a01b0316146101566120c0565b6060612bf88561337e565b9050612c57817f000000000000000000000000000000000000000000000000000000000000000081518110612c2957fe5b60200260200101517f00000000000000000000000000000000000000000000000000000000000000006122c3565b817f000000000000000000000000000000000000000000000000000000000000000081518110612c8357fe5b60209081029190910101526dffffffffffffffffffffffffffff999098509650505050505050565b620f424090565b611aca8282613394565b6001600160a01b03918216600090815260016020908152604080832093909416825291909152205490565b60007f00000000000000000000000000000000000000000000000000000000000000007f00000000000000000000000000000000000000000000000000000000000000007f0000000000000000000000000000000000000000000000000000000000000000612d54613427565b30604051602001612d69959493929190613f13565b60405160208183030381529060405280519060200120905090565b600281511015612d9357611a16565b600081600081518110612da257fe5b602002602001015190506000600190505b8251811015612dfd576000838281518110612dca57fe5b60200260200101519050612df3816001600160a01b0316846001600160a01b03161060656120c0565b9150600101612db3565b505050565b612e11610100831060646120c0565b612e3a60018210158015612e335750612e2f60ff84610100036120a8565b8211155b60646120c0565b612dfd83821c156101b46120c0565b6000828202612e6d841580612e66575083858381612e6357fe5b04145b60036120c0565b670de0b6b3a764000090049392505050565b62461bcd60e51b600090815260206004526007602452600a808404818106603090810160081b958390069590950190829004918206850160101b01602363ffffff0060e086901c160160181b0190930160c81b60445260e882901c90606490fd5b6000612eef84841115836120c0565b5050900390565b600073ba1ba1ba1ba1ba1ba1ba1ba1ba1ba1ba1ba1ba1b612f15611d01565b6001600160a01b031614158015612f305750612f308361342b565b15612f5857612f3d611d01565b6001600160a01b0316336001600160a01b031614905061190e565b612f60612a6c565b6001600160a01b0316639be2a8848484306040518463ffffffff1660e01b8152600401612f8f93929190613e79565b60206040518083038186803b158015612fa757600080fd5b505afa158015612fbb573d6000803e3d6000fd5b505050506040513d601f19601f8201168201806040525081019061204591906136fe565b64e8d4a5100090565b67016345785d8a000090565b60006001821b198416828461300a57600061300d565b60015b60ff16901b17949350505050565b60008180602001905181019061190e919061388e565b60006060600061304084613467565b90506060855167ffffffffffffffff8111801561305c57600080fd5b50604051908082528060200260200182016040528015613086578160200160208202803683370190505b50905060005b86518110156130c8578681815181106130a157fe5b60200260200101518282815181106130b557fe5b602090810291909101015260010161308c565b50909590945092505050565b6000818060200190518101906120b99190613bf4565b606060006130f883856122df565b9050845167ffffffffffffffff8111801561311257600080fd5b5060405190808252806020026020018201604052801561313c578160200160208202803683370190505b50915060005b8551811015613190576131718287838151811061315b57fe5b6020026020010151612e4990919063ffffffff16565b83828151811061317d57fe5b6020908102919091010152600101613142565b50509392505050565b6131b06001600160a01b038316151561019b6120c0565b6131bc82600083612dfd565b6001600160a01b0382166000908152602081905260409020546131e290826101b2612ee0565b6001600160a01b0383166000908152602081905260409020556132156132108261320a611914565b9061347d565b61348b565b60006001600160a01b0316826001600160a01b03167fddf252ad1be2c89b69c2b068fc378daa952ba7f163c4a11628f55a4df523b3ef836040516132599190613e59565b60405180910390a35050565b600061327482151560046120c0565b826132815750600061190e565b670de0b6b3a76400008381029061329b9085838161231557fe5b8260018203816132a757fe5b0460010191505061190e565b60006132bd612ce7565b82604051602001611cbe929190613d6c565b60006132e182516041146101b96120c0565b60208281015160408085015160608601518251600080825295019283905292939092811a9160019061331a908990859088908890613f7f565b6020604051602081039080840390855afa15801561333c573d6000803e3d6000fd5b5050604051601f1901519150506001600160a01b038116158015906133725750876001600160a01b0316816001600160a01b0316145b98975050505050505050565b6060818060200190518101906120b991906138d7565b6133a060008383612dfd565b6133b5613210826133af611914565b9061233c565b6001600160a01b0382166000908152602081905260409020546133d8908261233c565b6001600160a01b0383166000818152602081905260408082209390935591519091907fddf252ad1be2c89b69c2b068fc378daa952ba7f163c4a11628f55a4df523b3ef90613259908590613e59565b4690565b600061343d631c74c91760e11b611c89565b82148061345857506134556350dd6ed960e01b611c89565b82145b8061190e575061190e82613490565b6000818060200190518101906120b991906138aa565b60006120b983836001612ee0565b600255565b50600090565b604080518082019091526000808252602082015290565b6040805160c081018252600080825260208201819052918101829052606081018290526080810182905260a081019190915290565b803561190e816142a3565b600082601f8301126134fd578081fd5b813561351061350b82614283565b61425c565b81815291506020808301908481018184028601820187101561353157600080fd5b60005b8481101561355057813584529282019290820190600101613534565b505050505092915050565b600082601f83011261356b578081fd5b813567ffffffffffffffff811115613581578182fd5b613594601f8201601f191660200161425c565b91508082528360208285010111156135ab57600080fd5b8060208401602084013760009082016020015292915050565b803561190e816142b8565b6000602082840312156135e0578081fd5b81356120b9816142a3565b600080604083850312156135fd578081fd5b8235613608816142a3565b91506020830135613618816142a3565b809150509250929050565b600080600060608486031215613637578081fd5b8335613642816142a3565b92506020840135613652816142a3565b929592945050506040919091013590565b600080600080600080600060e0888a03121561367d578485fd5b8735613688816142a3565b96506020880135613698816142a3565b9550604088013594506060880135935060808801356136b6816142c5565b9699959850939692959460a0840135945060c09093013592915050565b600080604083850312156136e5578182fd5b82356136f0816142a3565b946020939093013593505050565b60006020828403121561370f578081fd5b815180151581146120b9578182fd5b60006020828403121561372f578081fd5b5051919050565b600080600080600080600060e0888a031215613750578081fd5b873596506020880135613762816142a3565b95506040880135613772816142a3565b9450606088013567ffffffffffffffff8082111561378e578283fd5b61379a8b838c016134ed565b955060808a0135945060a08a0135935060c08a01359150808211156137bd578283fd5b506137ca8a828b0161355b565b91505092959891949750929550565b600080604083850312156137eb578182fd5b505080516020909101519092909150565b60006020828403121561380d578081fd5b81356001600160e01b0319811681146120b9578182fd5b600060208284031215613835578081fd5b81516120b9816142a3565b60008060408385031215613852578182fd5b823561385d816142a3565b9150602083013567ffffffffffffffff811115613878578182fd5b6138848582860161355b565b9150509250929050565b60006020828403121561389f578081fd5b81516120b9816142b8565b600080604083850312156138bc578182fd5b82516138c7816142b8565b6020939093015192949293505050565b600080604083850312156138e9578182fd5b8251600481106138f7578283fd5b8092505060208084015167ffffffffffffffff811115613915578283fd5b8401601f81018613613925578283fd5b805161393361350b82614283565b81815283810190838501858402850186018a101561394f578687fd5b8694505b83851015613971578051835260019490940193918501918501613953565b5080955050505050509250929050565b60008060008060808587031215613996578182fd5b843567ffffffffffffffff808211156139ad578384fd5b818701915061012080838a0312156139c3578485fd5b6139cc8161425c565b90506139d889846135c4565b81526139e789602085016134e2565b60208201526139f989604085016134e2565b6040820152606083013560608201526080830135608082015260a083013560a0820152613a298960c085016134e2565b60c0820152613a3b8960e085016134e2565b60e08201526101008084013583811115613a53578687fd5b613a5f8b82870161355b565b828401525050809650506020870135915080821115613a7c578384fd5b50613a89878288016134ed565b949794965050505060408301359260600135919050565b600060a08284031215613ab1578081fd5b613abb60a061425c565b8251613ac6816142a3565b81526020830151613ad6816142a3565b6020820152604083015160038110613aec578283fd5b6040820152606083015160058110613b02578283fd5b60608201526080928301519281019290925250919050565b600060c08284031215613b2b578081fd5b613b3560c061425c565b8251613b40816142a3565b808252506020830151602082015260408301516040820152606083015160608201526080830151608082015260a083015160a08201528091505092915050565b600060208284031215613b91578081fd5b5035919050565b60008060008060808587031215613bad578182fd5b8451935060208501519250604085015191506060850151613bcd816142a3565b939692955090935050565b600060208284031215613be9578081fd5b81516120b9816142c5565b60008060408385031215613c06578182fd5b82516138c7816142c5565b6001600160a01b03169052565b6000815180845260208085019450808401835b83811015613c4d57815187529582019590820190600101613c31565b509495945050505050565b60008151808452815b81811015613c7d57602081850181015186830182015201613c61565b81811115613c8e5782602083870101525b50601f01601f19169290920160200192915050565b6000610120825160028110613cb457fe5b808552506020830151613cca6020860182613c11565b506040830151613cdd6040860182613c11565b50606083015160608501526080830151608085015260a083015160a085015260c0830151613d0e60c0860182613c11565b5060e0830151613d2160e0860182613c11565b50610100808401518282870152613d3a83870182613c58565b9695505050505050565b9182526001600160e01b031916602082015260240190565b6000828483379101908152919050565b61190160f01b81526002810192909252602282015260420190565b6001600160a01b0391909116815260200190565b6001600160a01b03978816815295871660208701529390951660408501526060840191909152608083015260a082019290925260c081019190915260e00190565b6001600160a01b03929092168252602082015260400190565b6000602082526120b96020830184613c1e565b600060408252613e1b6040830185613c1e565b8281036020840152613e2d8185613c1e565b95945050505050565b901515815260200190565b92151583526020830191909152604082015260600190565b90815260200190565b9182526001600160a01b0316602082015260400190565b9283526001600160a01b03918216602084015216604082015260600190565b9788526001600160a01b03968716602089015294861660408801526060870193909352608086019190915290921660a084015260c083019190915260e08201526101000190565b9586526001600160a01b0394851660208701529290931660408501526060840152608083019190915260a082015260c00190565b9485526020850193909352604084019190915260608301526001600160a01b0316608082015260a00190565b600083825260406020830152613f586040830184613c58565b949350505050565b600084825283602083015260606040830152613e2d6060830184613ca3565b93845260ff9290921660208401526040830152606082015260800190565b6000602082526120b96020830184613c58565b602080825260169082015275496e76616c6964207377617070656420746f6b656e7360501b604082015260600190565b60208082526018908201527f4f726465722062656c6f77206d696e696d756d2073697a650000000000000000604082015260600190565b6020808252601f908201527f496e73756666696369656e7420706f6f6c20746f6b656e2062616c616e636500604082015260600190565b6020808252601d908201527f496e73756666696369656e742063757272656e63792062616c616e6365000000604082015260600190565b60208082526023908201527f496e73756666696369656e7420706f6f6c20746f6b656e7320737761707065646040820152621034b760e91b606082015260800190565b6020808252600c908201526b0496e76616c696420737761760a41b604082015260600190565b6020808252601d908201527f496e73756666696369656e742073656375726974792062616c616e6365000000604082015260600190565b60208082526030908201527f496e73756666696369656e7420706f6f6c20746f6b656e73207377617070656460408201526f20696e20666f722063757272656e637960801b606082015260800190565b60208082526030908201527f496e73756666696369656e7420706f6f6c20746f6b656e73207377617070656460408201526f20696e20666f7220736563757269747960801b606082015260800190565b6020808252601d908201527f494e53554646494349454e545f494e5445524e414c5f42414c414e4345000000604082015260600190565b60006060825261420f6060830185613ca3565b905082516003811061421d57fe5b80602084015250602083015160408301529392505050565b600083825260406020830152613f586040830184613c1e565b60ff91909116815260200190565b60405181810167ffffffffffffffff8111828210171561427b57600080fd5b604052919050565b600067ffffffffffffffff821115614299578081fd5b5060209081020190565b6001600160a01b0381168114611a1657600080fd5b60028110611a1657600080fd5b60ff81168114611a1657600080fdfe9b85ff671b830162b81f1cb1253d54a6fee66e6f9760fc15cfc3fecccca8f118a264697066735822122048910cfa4fb3feb29702cd712d93db90f81be8646e2faa5047027d2b19b82a5964736f6c6343000701003360806040523480156200001157600080fd5b506040516200326138038062003261833981016040819052620000349162000101565b6200003f3362000093565b600c80546001600160a01b039586166001600160a01b031991821617909155600a805494861694821694909417909355600b805492851692841692909217909155600d805491909316911617905562000161565b600080546001600160a01b038381166001600160a01b0319831681178455604051919092169283917f8be0079c531659141344cd1fd0a4f28419497f9722a3daafe3b4186f6b6457e09190a35050565b80516001600160a01b0381168114620000fb57600080fd5b92915050565b6000806000806080858703121562000117578384fd5b620001238686620000e3565b9350620001348660208701620000e3565b9250620001458660408701620000e3565b9150620001568660608701620000e3565b905092959194509250565b6130f080620001716000396000f3fe608060405234801561001057600080fd5b50600436106101005760003560e01c80637ef9389011610097578063d61aed7a11610066578063d61aed7a146101f3578063d729cf6c14610206578063e43372e914610219578063f2fde38b1461022157610100565b80637ef93890146101a557806381b5da1d146101b85780638da5cb5b146101cb578063ca142f75146101d357610100565b80635487e8cf116100d35780635487e8cf146101605780635778472a146101735780636945c1fd14610193578063715018a61461019b57610100565b80632541897f1461010557806338fff2d01461012357806346764e5e1461013857806346b8b7301461014b575b600080fd5b61010d610234565b60405161011a9190612e45565b60405180910390f35b61012b610243565b60405161011a9190612e9d565b61012b610146366004612d47565b6102d2565b61015361046f565b60405161011a9190612e59565b61012b61016e366004612da9565b610568565b610186610181366004612cbd565b61075d565b60405161011a9190612fdb565b61010d610874565b6101a3610883565b005b6101a36101b3366004612d95565b61089b565b6101a36101c6366004612d1c565b610972565b61010d610a9e565b6101e66101e1366004612c92565b610aad565b60405161011a9190613036565b61012b610201366004612ced565b610b6e565b6101a3610214366004612c92565b610c79565b610153610d1e565b6101a361022f366004612c76565b610d7f565b600a546001600160a01b031690565b600080600d60009054906101000a90046001600160a01b03166001600160a01b03166338fff2d06040518163ffffffff1660e01b815260040160206040518083038186803b15801561029457600080fd5b505afa1580156102a8573d6000803e3d6000fd5b505050506040513d601f19601f820116820180604052508101906102cc9190612cd5565b91505090565b60006102f2336102e0610a9e565b6001600160a01b0316146101aa610dae565b6002600085815260076020526040902060010154600160a81b900460ff16600481111561031b57fe5b146103415760405162461bcd60e51b815260040161033890612f6d565b60405180910390fd5b60c08201516000858152600760205260409020546001600160a01b0390811691161461037f5760405162461bcd60e51b815260040161033890612f36565b600a5460008581526007602052604081206001015490916001600160a01b039182169116146103af5760016103b2565b60005b90506103bf848683610dc0565b600085815260076020908152604090912060020154600a549185015190916001600160a01b03918216911614806104085750600b5460208501516001600160a01b039081169116145b156104325761041b846060015182610e60565b600087815260076020526040902060020155610466565b60008681526007602052604090206002015460608501516104539190610e79565b6000878152600760205260409020600201555b95945050505050565b600354606090819067ffffffffffffffff8111801561048d57600080fd5b506040519080825280602002602001820160405280156104b7578160200160208202803683370190505b50600354909150600090815b8181101561055f57336001600160a01b031660076000600384815481106104e657fe5b600091825260208083206001600290930201919091015483528201929092526040019020546001600160a01b03161415610557576003818154811061052757fe5b90600052602060002090600202016001015484848151811061054557fe5b60209081029190910101526001909201915b6001016104c3565b50919250505090565b6000610576336102e0610a9e565b60008251600281111561058557fe5b148061059d575060018251600281111561059b57fe5b145b6105a657600080fd5b60055442146105b557426105bc565b6005546001015b600581905560c08401516040516000926105d99291602001612e23565b6040516020818303038152906040528051906020012090506105f9612ab3565b6040518060a001604052808660c001516001600160a01b0316815260200186602001516001600160a01b031681526020018560000151600281111561063a57fe5b8152602001600281526060870151602091820152600084815260078252604090819020835181546001600160a01b03199081166001600160a01b03928316178355938501516001830180549095169116178084559184015193945084939092909160ff60a01b1916600160a01b8360028111156106b357fe5b0217905550606082015160018201805460ff60a81b1916600160a81b8360048111156106db57fe5b021790555060809190910151600290910155600a5460208201516001600160a01b039081169116141561071b57610716846020015183610e8f565b610744565b600b5460208201516001600160a01b0390811691161415610744576107448460200151836110a2565b6107528285602001516112b7565b925050505b92915050565b610765612ab3565b61076d610a9e565b6001600160a01b0316336001600160a01b031614806107965750600c546001600160a01b031633145b806107b757506000828152600760205260409020546001600160a01b031633145b6107d35760405162461bcd60e51b815260040161033890612ed2565b600082815260076020908152604091829020825160a08101845281546001600160a01b03908116825260018301549081169382019390935292909190830190600160a01b900460ff16600281111561082757fe5b600281111561083257fe5b81526020016001820160159054906101000a900460ff16600481111561085457fe5b600481111561085f57fe5b81526020016002820154815250509050919050565b600b546001600160a01b031690565b61088f336102e0610a9e565b6108996000611a2f565b565b600c546001600160a01b03163314806108cc57506108b7610a9e565b6001600160a01b0316336001600160a01b0316145b6108e85760405162461bcd60e51b815260040161033890612f09565b600083815260076020526040902060028101805484019055600101805460ff60a81b1916600160a91b1790819055600a546001600160a01b039182169116141561093b576109368184610e8f565b61096d565b600b546000848152600760205260409020600101546001600160a01b039081169116141561096d5761096d81846110a2565b505050565b600c546001600160a01b03163314806109a3575061098e610a9e565b6001600160a01b0316336001600160a01b0316145b6109bf5760405162461bcd60e51b815260040161033890612f09565b600092835260076020908152604080852080546001600160a01b03199081168255600180830180546001600160b01b031990811690915560028085018a9055978952848920805484168155808301805490921690915580880189905592546001600160a01b0390811689526008808752858a20888b528752858a208054851681558084018b9055808a018b905560038082018c905560048083018d905560059283018d905596549093168b52908752858a20978a5296909552928720805490911681559182018690559381018590559081018490559182018390550155565b6000546001600160a01b031690565b610ab5612ae2565b610abd610a9e565b6001600160a01b0316336001600160a01b03161480610ae45750336001600160a01b038416145b610b005760405162461bcd60e51b815260040161033890612fa4565b506001600160a01b03918216600090815260086020908152604080832093835292815290829020825160c0810184528154909416845260018101549184019190915260028101549183019190915260038101546060830152600481015460808301526005015460a082015290565b6000610b7c336102e0610a9e565b6002600084815260076020526040902060010154600160a81b900460ff166004811115610ba557fe5b14610bc25760405162461bcd60e51b815260040161033890612f6d565b6000838152600760205260409020546001600160a01b03838116911614610bfb5760405162461bcd60e51b815260040161033890612f36565b600a5460008481526007602052604081206001015490916001600160a01b03918216911614610c2b576001610c2e565b60005b9050610c3a8482611a7f565b505050600090815260076020526040812060028101805482546001600160a01b0319168355600190920180546001600160b01b03191690559190915590565b610c85336102e0610a9e565b6001600160a01b038216600090815260096020526040812054905b81811015610d18576001600160a01b0384166000908152600960205260409020805484919083908110610ccf57fe5b90600052602060002001541415610d10576001600160a01b0384166000908152600960205260409020805482908110610d0457fe5b60009182526020822001555b600101610ca0565b50505050565b33600090815260096020908152604091829020805483518184028101840190945280845260609392830182828015610d7557602002820191906000526020600020905b815481526020019060010190808311610d61575b5050505050905090565b610d8b336102e0610a9e565b610da26001600160a01b03821615156101ab610dae565b610dab81611a2f565b50565b81610dbc57610dbc81611beb565b5050565b8015610e1157600082815260026020526040902054600180548592908110610de457fe5b60009182526020808320600292830201939093558482529091526040902054610936576109366000611bfb565b600082815260046020526040902054600380548592908110610e2f57fe5b600091825260208083206002909202909101929092558381526004909152604090205461096d5761096d6000611de9565b6000828201610e728482101583610dae565b9392505050565b6000610e89838311156001610dae565b50900390565b60408051808201909152828152602081018281526003805460018082018355600083815294517fc2575a0e9e593c00f959f8c92f12db2869c3395a3b0502d05e2516446f71f85b60029093029283015592517fc2575a0e9e593c00f959f8c92f12db2869c3395a3b0502d05e2516446f71f85c9091015554610f1091610e79565b90506000610f218260026000611fd5565b90505b600082118015610f6f575060038281548110610f3c57fe5b90600052602060002090600202016000015460038281548110610f5b57fe5b906000526020600020906002020160000154115b15610d1857610f7c612b17565b60038281548110610f8957fe5b906000526020600020906002020160405180604001604052908160008201548152602001600182015481525050905060038381548110610fc557fe5b906000526020600020906002020160038381548110610fe057fe5b9060005260206000209060020201600082015481600001556001820154816001015590505081600460006003868154811061101757fe5b906000526020600020906002020160010154815260200190815260200160002081905550806003848154811061104957fe5b906000526020600020906002020160008201518160000155602082015181600101559050508260046000836020015181526020019081526020016000208190555081925061109a8360026000611fd5565b915050610f24565b6040805180820190915282815260208101828152600180548082018255600082815293517fb10e2d527612073b26eecdfd717e6a320cf44b4afac2b0732d9fcbe2b7fa0cf660029092029182015591517fb10e2d527612073b26eecdfd717e6a320cf44b4afac2b0732d9fcbe2b7fa0cf790920191909155805461112591610e79565b905060006111368260026000611fd5565b90505b60008211801561118457506001828154811061115157fe5b9060005260206000209060020201600001546001828154811061117057fe5b906000526020600020906002020160000154105b15610d1857611191612b17565b6001828154811061119e57fe5b9060005260206000209060020201604051806040016040529081600082015481526020016001820154815250509050600183815481106111da57fe5b9060005260206000209060020201600183815481106111f557fe5b9060005260206000209060020201600082015481600001556001820154816001015590505081600260006001868154811061122c57fe5b906000526020600020906002020160010154815260200190815260200160002081905550806001848154811061125e57fe5b90600052602060002090600202016000820151816000015560208201518160010155905050826002600083602001518152602001908152602001600020819055508192506112af8360026000611fd5565b915050611139565b60008060008080600080600060606112cf8b8b611ffd565b9b509092509050816112eb578a98505050505050505050610757565b600092505b80518310156119b15760008b815260076020526040902060020154611314576119b1565b8a81848151811061132157fe5b6020026020010151602001511415801561138c575060008b815260076020819052604082205483516001600160a01b03909116929084908790811061136257fe5b6020908102919091018101518101518252810191909152604001600020546001600160a01b031614155b80156113de57506000600760008386815181106113a557fe5b602002602001015160200151815260200190815260200160002060010160159054906101000a900460ff1660048111156113db57fe5b14155b1561160e57600b5481516001600160a01b039091169060079060009084908790811061140657fe5b6020908102919091018101518101518252810191909152604001600020600101546001600160a01b031614801561145c5750600a5460008c8152600760205260409020600101546001600160a01b039081169116145b1561150c578981848151811061146e57fe5b602002602001015160000151101580611485575089155b806114a7575080838151811061149757fe5b6020026020010151600001516000145b15611507578083815181106114b857fe5b6020026020010151600001516000146114e8578083815181106114d757fe5b6020026020010151600001516114ea565b895b96508083815181106114f857fe5b60200260200101516020015197505b61160e565b600a5481516001600160a01b039091169060079060009084908790811061152f57fe5b6020908102919091018101518101518252810191909152604001600020600101546001600160a01b03161480156115855750600b5460008c8152600760205260409020600101546001600160a01b039081169116145b1561160e578981848151811061159757fe5b6020026020010151600001511115806115ae575089155b1561160e578083815181106115bf57fe5b6020026020010151600001516000146115ef578083815181106115de57fe5b6020026020010151600001516115f1565b895b96508083815181106115ff57fe5b60200260200101516020015195505b87156117df57600a5460008c8152600760205260409020600101546001600160a01b03908116911614156117da57600088815260076020526040902060020154611658908861239d565b60008c81526007602052604090206002015490955085106117535760008b815260076020526040902060020154945061169185886123ee565b6000898152600760205260409020600201549094506116b09085610e79565b60008981526007602052604080822060029081019384558e835290822001819055899052546116fa576000888152600760205260409020600101805460ff60a81b19169055611726565b6000888152600760205260409020600101805460ff60a81b1916600160a81b17905561172687896110a2565b60008b8152600760205260409020600101805460ff60a81b1916905561174e8b898787612424565b6117da565b84156117da5761176385886123ee565b60008c8152600760205260409020600201549094506117829086610e79565b60008c8152600760205260408082206002808201949094558b83529082209283018290556001928301805460ff60a81b19908116909155918e9052919091018054909116600160a81b1790556117da8b898787612424565b6119a6565b85156119a657600b5460008c8152600760205260409020600101546001600160a01b03908116911614156119a65760008681526007602052604090206002015461182990886123ee565b60008c815260076020526040902060020154909450841061191f5760008b8152600760205260409020600201549350611862848861239d565b6000878152600760205260409020600201549095506118819086610e79565b60008781526007602052604080822060029081019384558e835290822001819055879052546118cb576000868152600760205260409020600101805460ff60a81b191690556118f7565b6000868152600760205260409020600101805460ff60a81b1916600160a81b1790556118f78787610e8f565b60008b8152600760205260409020600101805460ff60a81b191690556117da8b878787612424565b83156119a65761192f848861239d565b60008c81526007602052604090206002015490955061194e9085610e79565b60008c8152600760205260408082206002808201949094558983529082209283018290556001928301805460ff60a81b19908116909155918e9052919091018054909116600160a81b1790556119a68b878787612424565b6001909201916112f0565b6000808c815260076020526040902060010154600160a81b900460ff1660048111156119d957fe5b1415611a2057600a5460008c81526007602052604081206001015490916001600160a01b03918216911614611a0f576001611a12565b60005b9050611a1e8c82611a7f565b505b50989998505050505050505050565b600080546001600160a01b038381166001600160a01b0319831681178455604051919092169283917f8be0079c531659141344cd1fd0a4f28419497f9722a3daafe3b4186f6b6457e09190a35050565b8015611b3857600082815260026020526040902054611aa657611aa061272c565b50611b33565b60018054611ab49082610e79565b81548110611abe57fe5b90600052602060002090600202016001600260008581526020019081526020016000205481548110611aec57fe5b60009182526020909120825460029092020190815560019182015490820155805480611b1457fe5b6000828152602081206002600019909301928302018181556001015590555b610dbc565b600082815260046020526040902054611b5957611b53612871565b50610dbc565b60038054611b68906001610e79565b81548110611b7257fe5b90600052602060002090600202016003600460008581526020019081526020016000205481548110611ba057fe5b6000918252602090912082546002909202019081556001918201549101556003805480611bc957fe5b6000828152602081206002600019909301928302018181556001015590555050565b610dab816210905360ea1b6129ae565b60018054611c0891610e79565b611c13826002612a0f565b1015610dab576000611c26826002612a0f565b9050600060018281548110611c3757fe5b6000918252602082206002909102015491506001611c558482610e60565b81548110611c5f57fe5b906000526020600020906002020160000154905080821015611c8957611c86836001610e60565b92505b60018381548110611c9657fe5b90600052602060002090600202016000015460018581548110611cb557fe5b9060005260206000209060020201600001541115611cd557505050610dab565b611cdd612b17565b60018581548110611cea57fe5b906000526020600020906002020160405180604001604052908160008201548152602001600182015481525050905060018481548110611d2657fe5b906000526020600020906002020160018681548110611d4157fe5b90600052602060002090600202016000820154816000015560018201548160010155905050846002600060018781548110611d7857fe5b9060005260206000209060020201600101548152602001908152602001600020819055508060018581548110611daa57fe5b6000918252602080832084516002938402909101908155938101516001909401939093559282015181529190526040902083905550909150611bfb9050565b600354611df7906001610e79565b611e02826002612a0f565b1015610dab576000611e15826002612a0f565b9050600060038281548110611e2657fe5b6000918252602082206002909102015491506003611e45846001610e60565b81548110611e4f57fe5b906000526020600020906002020160000154905080821115611e7957611e76836001610e60565b92505b60038381548110611e8657fe5b90600052602060002090600202016000015460038581548110611ea557fe5b9060005260206000209060020201600001541015611ec557505050610dab565b611ecd612b17565b60038581548110611eda57fe5b906000526020600020906002020160405180604001604052908160008201548152602001600182015481525050905060038481548110611f1657fe5b906000526020600020906002020160038681548110611f3157fe5b90600052602060002090600202016000820154816000015560018201548160010155905050846004600060038781548110611f6857fe5b9060005260206000209060020201600101548152602001908152602001600020819055508060038581548110611f9a57fe5b60009182526020808320845160029093020191825592830151600190910155918101518252600490526040902083905550909150611de99050565b600081611feb57611fe68484612a29565b611ff5565b611ff58484612a49565b949350505050565b600a5460008381526007602052604081206001015490916060918391829184916001600160a01b039182169116146120885760035467ffffffffffffffff8111801561204857600080fd5b5060405190808252806020026020018201604052801561208257816020015b61206f612b17565b8152602001906001900390816120675790505b506120dd565b60015467ffffffffffffffff811180156120a157600080fd5b506040519080825280602002602001820160405280156120db57816020015b6120c8612b17565b8152602001906001900390816120c05790505b505b600a54600089815260076020526040812060010154929350916001600160a01b0390811691161415612256575b6001541561225157600061211c612a7c565b90508015801561212a575087155b1561214e57600654156121435750600654965086612149565b50612251565b612163565b8015801561215b57508715155b156121635750865b878110156121715750612251565b61217961272c565b83838151811061218557fe5b602002602001018190525060008084848151811061219f57fe5b602002602001015160000151116121b657816121cf565b8383815181106121c257fe5b6020026020010151600001515b905061221a8561221583600760008989815181106121e957fe5b60200260200101516020015181526020019081526020016000206002015461239d90919063ffffffff16565b610e60565b60008b81526007602052604090206002015490955085106122475750929550909350859250612396915050565b505060010161210a565b61238c565b600b546000898152600760205260409020600101546001600160a01b039081169116141561238c575b6003541580159061229f575086612294612aa3565b11158061229f575086155b1561238c5760006122ae612aa3565b9050801580156122bc575087155b156122e057600654156122d557506006549650866122db565b5061238c565b6122f5565b801580156122ed57508715155b156122f55750865b6122fd612871565b83838151811061230957fe5b6020026020010181905250612358846122156007600087878151811061232b57fe5b602002602001015160200151815260200190815260200160002060020154846123ee90919063ffffffff16565b60008a8152600760205260409020600201549094508410612383575091945092508491506123969050565b5060010161227f565b5090935091508390505b9250925092565b60006123ac8215156004610dae565b826123b957506000610757565b670de0b6b3a7640000838102906123dc908583816123d357fe5b04146005610dae565b8281816123e557fe5b04915050610757565b600082820261241284158061240b57508385838161240857fe5b04145b6003610dae565b670de0b6b3a764000090049392505050565b6005805460010190819055612437612ae2565b6040518060c001604052806007600089815260200190815260200160002060000160009054906101000a90046001600160a01b03166001600160a01b031681526020018781526020018681526020018381526020018581526020018481525090508060086000600760008a815260200190815260200160002060000160009054906101000a90046001600160a01b03166001600160a01b03166001600160a01b03168152602001908152602001600020600084815260200190815260200160002060008201518160000160006101000a8154816001600160a01b0302191690836001600160a01b031602179055506020820151816001015560408201518160020155606082015181600301556080820151816004015560a0820151816005015590505080600860006007600089815260200190815260200160002060000160009054906101000a90046001600160a01b03166001600160a01b03166001600160a01b03168152602001908152602001600020600084815260200190815260200160002060008201518160000160006101000a8154816001600160a01b0302191690836001600160a01b031602179055506020820151816001015560408201518160020155606082015181600301556080820151816004015560a08201518160050155905050600960006007600089815260200190815260200160002060000160009054906101000a90046001600160a01b03166001600160a01b03166001600160a01b0316815260200190815260200160002081606001519080600181540180825580915050600190039060005260206000200160009091909190915055600960006007600088815260200190815260200160002060000160009054906101000a90046001600160a01b03166001600160a01b03166001600160a01b0316815260200190815260200160002081606001519080600181540180825580915050600190039060005260206000200160009091909190915055612721848461239d90919063ffffffff16565b600655505050505050565b612734612b17565b6001546127535760405162461bcd60e51b815260040161033890612ea6565b61275b612b17565b600160008154811061276957fe5b906000526020600020906002020160405180604001604052908160008201548152602001600182015481525050905060016127aa6001805490506001610e79565b815481106127b457fe5b906000526020600020906002020160016000815481106127d057fe5b90600052602060002090600202016000820154816000015560018201548160010155905050600060026000600160008154811061280957fe5b906000526020600020906002020160010154815260200190815260200160002081905550600180548061283857fe5b600082815260208120600260001990930192830201818155600190810182905591909255541561286b5761286b81611bfb565b50905090565b612879612b17565b6003546128985760405162461bcd60e51b815260040161033890612ea6565b6128a0612b17565b60036000815481106128ae57fe5b906000526020600020906002020160405180604001604052908160008201548152602001600182015481525050905060036128ef6003805490506001610e79565b815481106128f957fe5b9060005260206000209060020201600360008154811061291557fe5b90600052602060002090600202016000820154816000015560018201548160010155905050600060046000600360008154811061294e57fe5b906000526020600020906002020160010154815260200190815260200160002081905550600380548061297d57fe5b60008281526020812060026000199093019283020181815560010181905591556003541561286b5761286b81611de9565b62461bcd60e51b600090815260206004526007602452600a808404818106603090810160081b958390069590950190829004918206850160101b01602363ffffff0060e086901c160160181b0190930160c81b60445260e882901c90606490fd5b6000828202610e7284158061240b57508385838161240857fe5b6000612a388215156004610dae565b818381612a4157fe5b049392505050565b6000612a588215156004610dae565b82612a6557506000610757565b816001840381612a7157fe5b046001019050610757565b60006001600081548110612a8c57fe5b906000526020600020906002020160000154905090565b60006003600081548110612a8c57fe5b6040805160a0810182526000808252602082018190529091820190815260200160008152602001600081525090565b6040805160c081018252600080825260208201819052918101829052606081018290526080810182905260a081019190915290565b604080518082019091526000808252602082015290565b8035610757816130a5565b600082601f830112612b49578081fd5b813567ffffffffffffffff811115612b5f578182fd5b612b72601f8201601f191660200161307e565b9150808252836020828501011115612b8957600080fd5b8060208401602084013760009082016020015292915050565b80356002811061075757600080fd5b6000610120808385031215612bc4578182fd5b612bcd8161307e565b915050612bda8383612ba2565b8152612be98360208401612b2e565b6020820152612bfb8360408401612b2e565b6040820152606082013560608201526080820135608082015260a082013560a0820152612c2b8360c08401612b2e565b60c0820152612c3d8360e08401612b2e565b60e08201526101008083013567ffffffffffffffff811115612c5e57600080fd5b612c6a85828601612b39565b82840152505092915050565b600060208284031215612c87578081fd5b8135610e72816130a5565b60008060408385031215612ca4578081fd5b8235612caf816130a5565b946020939093013593505050565b600060208284031215612cce578081fd5b5035919050565b600060208284031215612ce6578081fd5b5051919050565b60008060408385031215612cff578182fd5b823591506020830135612d11816130a5565b809150509250929050565b600080600060608486031215612d30578081fd5b505081359360208301359350604090920135919050565b600080600060608486031215612d5b578283fd5b8335925060208401359150604084013567ffffffffffffffff811115612d7f578182fd5b612d8b86828701612bb1565b9150509250925092565b600080600060608486031215612d30578283fd5b6000808284036060811215612dbc578283fd5b833567ffffffffffffffff811115612dd2578384fd5b612dde86828701612bb1565b9350506040601f1982011215612df2578182fd5b50612dfd604061307e565b602084013560038110612e0e578283fd5b81526040939093013560208401525092909150565b60609290921b6bffffffffffffffffffffffff19168252601482015260340190565b6001600160a01b0391909116815260200190565b6020808252825182820181905260009190848201906040850190845b81811015612e9157835183529284019291840191600101612e75565b50909695505050505050565b90815260200190565b6020808252601290820152714f72646572626f6f6b20697320656d70747960701b604082015260600190565b6020808252601d908201527f556e617574686f72697a65642061636365737320746f206f7264657273000000604082015260600190565b602080825260139082015272556e617574686f72697a65642061636365737360681b604082015260600190565b6020808252601b908201527f53656e646572206973206e6f74206f726465722063726561746f720000000000604082015260600190565b60208082526017908201527f4f7264657220697320616c72656164792066696c6c6564000000000000000000604082015260600190565b6020808252601d908201527f556e617574686f72697a65642061636365737320746f20747261646573000000604082015260600190565b81516001600160a01b03908116825260208084015190911690820152604082015160a08201906003811061300b57fe5b604083015260608301516005811061301f57fe5b806060840152506080830151608083015292915050565b81516001600160a01b031681526020808301519082015260408083015190820152606080830151908201526080808301519082015260a0918201519181019190915260c00190565b60405181810167ffffffffffffffff8111828210171561309d57600080fd5b604052919050565b6001600160a01b0381168114610dab57600080fdfea264697066735822122098622462594349b2edf97a90faed8e588115df04da12a5cdf5eaf097446743a664736f6c63430007010033",
  "linkReferences": {},
  "deployedLinkReferences": {}
}